:020000040000FA
:1000000098182020D5000000D9000000DB00000077
:1000100000000000000000000000000000000000E0
:10002000000000000000000000000000DD000000F3
:100030000000000000000000DF000000E100000000
:10004000E3000000F11B0000E3000000E3000000FB
:10005000250B0000E3000000E3000000E3000000C7
:1000600000000000E3000000E300000000000000CA
:100070000000000005340000E3000000E300000081
:10008000E5300000E3000000E3000000E3000000B2
:10009000E3000000E300000000000000000000009A
:1000A000E3000000E300000000000000000000008A
:1000B000E300000000000000E3000000E300000097
:1000C0000348854600F0C4FC00480047313E00006C
:1000D0009818202003480047FEE7FEE7FEE7FEE70A
:1000E000FEE7FEE7C100000003460B439B0703D079
:1000F00009E008C9121F08C0042AFAD203E00B78ED
:100100000370401C491C521EF9D27047D2B201E064
:100110000270401C491EFBD270470022F6E710B562
:1001200013460A4604461946FFF7F0FF204610BD65
:10013000F8B502464A40D40F42004B0052085B0813
:100140009A4202D20246084611464A0023D0C30D05
:100150004A00DDB2120EAD1A202D35DA4902012611
:10016000490AF6058A19002C00D0524220214F1B63
:100170001146B9402A411018C20D9A4221D0002CD4
:1001800017D0012D08DCDA05801AD20F8019D207AA
:10019000DBB200F099FBF8BDDA05801A01234000BC
:1001A0001B06C01880185A428018CA0F1043490015
:1001B00007E04908C2071143DA05801A8019400890
:1001C000801800F079FBF8BD61000122511A001B74
:1001D000F7E70122D2075140AAE70122D207504097
:1001E000A6E7024670B54A40D30FDB0740002DD08A
:1001F0004A002AD0010E140E000212020919400A08
:10020000520A8418E50104465443000A120A2E04D7
:100210005043A4194219200CC543AA18120C0125F9
:10022000AD03521C521912047F39240400D0521C11
:10023000104301D44000491EC2B20C06C009201868
:10024000401C4008802A02D003E0002070BD400816
:100250004000002900DA0020184370BD70B5024646
:100260004A40D50F40004A00ED07400852080028D8
:1002700014D0002A12D0C40DD30D41020120C005B4
:100280005202490A520AE41A091812187D3491429E
:1002900001D3641C00E04900002C01DA002070BD8D
:1002A0000023914201D3891A0343400849000028E2
:1002B000F7D100290AD0914202D10121C90705E0F6
:1002C000914201D2012101E00121C943E005C0189A
:1002D000401900F0F1FA70BDF0B5074608465840E5
:1002E00087B0C00F049048000E46590040084908E6
:1002F000BC1A884105D2384631461E4617460B4681
:1003000002465800400810434CD0300D0390400581
:100310005900400D490D0590401A0290402872DAAC
:1003200018030121000B090508430190049800926D
:10033000002805D001995242002088410092019086
:10034000029840210A1A0199009800F081FA0546A6
:100350000C466B4607CB00F09CFAC0197141039A1A
:100360000E0D0023D71756401A467A40164344D044
:10037000049A002A2DD0029A012A039A15DC12054C
:10038000C01A914101263605001C7141D20F059E0D
:10039000D2070093019202962A46234600F0DAFA29
:1003A00007B0F0BD38463146FAE71605224A0F4637
:1003B000B218C01AB74101210905001C4F410018AD
:1003C0007F41114618187941E20F10436D196441BD
:1003D00013E0E2076D0815436408C2071443039A4B
:1003E00001261205C01A91413605001C7141CE0745
:1003F000400830434908C01851412A46234600F0BE
:100400009CFACDE7FFE7049801224000C117121AB9
:1004100000238B4104983146C417381AA141EEE7F6
:1004200030B40124E407634030BC55E730B4012404
:10043000E407614030BC4FE70000E0FFF0B51FB4B7
:1004400088B00B990998002448400999C00F4900C9
:1004500049080991C0070B990090490049080B9180
:1004600009990898A64608431CD00B990A98084396
:1004700018D0099801244000420D4800410D099808
:1004800024050003000B204309900B980003000B88
:1004900020430B9050181C4940180022019014462C
:1004A000104605E0002001460DB0F0BD032801DA3A
:1004B000034600E003239C46C11A0AAE0AE05F002F
:1004C00008ADED5B4F00F75B7D430027AA187C4128
:1004D000491C5B1E6145F2DD410004AB5A52210408
:1004E000120C0A43240C401C0828DFDB0198029000
:1004F0000099704601910090059B049A079906980F
:1005000000F028FAD0E700000DFCFFFFF0B50C4624
:100510005C4085B0E40FE40703944C0000266408B7
:1005200059009446490802460296224321D0624669
:100530000A431ED06200570D4A000E032303550DD7
:10054000012402462C492405781B1B0B360B40184E
:1005500023432643614600901C46501AB44103D3FE
:100560000098401C009002E0921800985B4100281F
:1005700003DA0020014605B0F0BD00200121090585
:100580000746864611E064461D46141BB54106D356
:100590006546521BB341744607430C43A646CD073C
:1005A00040084908284392185B4105460D43EAD1AB
:1005B0001046184313D06046194650407140084316
:1005C00006D06046101AB34106D20122002306E08D
:1005D00000220123DB0702E00122D24353100098DE
:1005E00074460105381C6141029C039D0019694154
:1005F00000F0A3F9BFE70000FD0300000122D207CD
:10060000002800DB101A002900DB511A814201D8B2
:1006100001207047002070470122D207002800DB2C
:10062000101A002900DB511A814201D201207047C3
:10063000002070470122D207002800DB101A002991
:1006400000DB511A814201D301207047002070471E
:1006500010B5002904DB0C460121C9074042A14125
:10066000002B04DB1C460123DB075242A341801A06
:10067000994101D3012010BD002010BDC217C10F48
:10068000504010B54018CA079623002100F01CF90D
:1006900010BD10B500229623114600F015F910BDCB
:1006A0000EB5C217C10F5040CA0740180021054BB4
:1006B0000293019200910A460B4600F04BF903B0F9
:1006C00000BD0000330400000EB505490291002171
:1006D00000910A460B46019100F03CF903B000BDC1
:1006E00033040000C20F410040020123400ADB0531
:1006F000D207090EC0187F2901DA00207047962919
:1007000003DC9623591AC84001E096398840002A34
:10071000F4D040427047000070B5CD0F4A00090385
:100720000123090B1B0519430B4BED070024520D48
:100730009A4201DA002070BD074B34339A4203DC41
:100740009A1A00F095F802E00449511888402C43A9
:10075000F1D0404270BD0000FF030000CDFBFFFF61
:10076000C20FD207400040080BD0C10D0723DB01A8
:10077000C91840020905400A1143C2084007114345
:100780007047002001467047CB0FDB07490010B5CA
:10079000490802460A4307D00A0D07240903E40169
:1007A000090B121B002A01DC002010BDC900440FF8
:1007B0000C43C100E018D205801800F07DF810BD90
:1007C00070B50446002903D000202022012310E048
:1007D000002801D00020C043C046C0460DE0254699
:1007E000D5408D4205D30D469540641B1D4695406E
:1007F00040191546521E002DF1DC214670BD000047
:1008000070B5002504462E46002911D0002C01DACF
:1008100001254442002901DA012649422046FFF71A
:10082000CFFFB54200D04042002D00D0494270BDFC
:10083000002C02DA0121C90702E0002C00DD034987
:100840000846C046C046214670BD0000FFFFFF7F3E
:1008500010B5202A04DB0146203A9140002010BD4B
:10086000914020239C1A0346E3401943904010BD59
:1008700010B5202A04DB0846203AD040002110BDE4
:100880000B46D340D0402024A21A91400843194679
:1008900010BD10B5202A06DBCB170846203A1041C0
:1008A000C1170B4306E00B461341D0402024A21A87
:1008B00091400843194610BD002904DA401C490044
:1008C00001D140084000704770B40024050C05D1E8
:1008D0001024000402D1002921D01124050E01D1D9
:1008E00000020834050F01D10001241D850F01D13C
:1008F0008000A41C002801DB4000641C002908D0F3
:1009000020252E1B0D46F540A14000D00121294392
:10091000084301061B1B000ADB1D02D5002070BC2A
:100920007047DB05181880180029F8DA401C4900C8
:10093000F5D170BC40084000704710B5002B08DAB4
:100940000024401C614192185B411A4301D14008C8
:10095000400010BDF0B51FB482B005460C0003D0B6
:10096000084603F071FE02E003F06EFE20300246FE
:10097000009021462846FFF76BFF049B059A04462A
:100980000F4618431143084314D0184610431BD098
:10099000009840210A1A18460599FFF769FF054695
:1009A0000E46009A05990498FFF752FF084305D0B8
:1009B000012004E02046394607B0F0BD0020C117F1
:1009C00005430E432C43374300990E986305401AA4
:1009D0007905E40A00220C43FD0A0A3002D5002002
:1009E0000146E9E70105101969410C9C0D9D0019AC
:1009F0006941FFF7A2FFDFE770B54B005B080343D7
:100A00000BD04B005C0D002633466542B341D41732
:100A1000AD1AA34102DB0020014670BD120530185B
:100A2000514170BD10B5002904DB0124E4074042A8
:100A30008C412146002B04DB1C460123DB0752427C
:100A4000A341994200D1904210BD00000000000077
:100A50001CB5094800900948019005460126009CF4
:100A600005E0E36807CC33430C3C98471034AC42B4
:100A7000F7D3FFF729FB0000045E0000245E0000AE
:100A8000FEB500231A461B1A8A4103DB00200146EB
:100A900003B0F0BD4A000D0301212D0B0905520DD5
:100AA0000D43D10702D100186D41521E5110FF3184
:100AB000FF310131002704463E4638460097019138
:100AC0000246012100200905FFF7D2FEC31971413A
:100AD000F818324684468E464A4161462846611AD5
:100AE000904104D36046241A954176461F46241946
:100AF00000986D41401C00903428E1DDF919304622
:100B00007041091BA84103D20022D243134601E0E1
:100B10000022134601980105381C7141FFF70DFFB3
:100B2000B6E7000080B50120800700F005F909282C
:100B300004D1FFE702490120087000E0FFE780BD13
:100B4000F705202080B584B0002103913F4800F0D4
:100B500029FA0146C820411A02A8017000782849E4
:100B60000978884207D0FFE727490120087002F082
:100B7000B3FA03903FE00398009002F0ADFA01460B
:100B80000098401A00021F49884233D3FFE71E48ED
:100B9000007801282ED1FFE71B49002008701B4870
:100BA000007801A90870FFE701A8007802A9097878
:100BB00088420CDAFFE701A801782648405C02F081
:100BC000B3FCFFE70198401C01A90870ECE702980C
:100BD0000E49087002A8007864280ADBFFE702A922
:100BE00000200870094908700549087000F010F8E5
:100BF000FFE7FFE7FFE702980149087004B080BDF6
:100C00006200202000803801610020206000202048
:100C100080B582B00D4800900021019100F09CF950
:100C2000009801990A4A00F005FA00980199094ACA
:100C300000F0ECF900980199C82200F00FFA009832
:100C4000019900F09CF902B080BDC04600A042406E
:100C5000241110402F05202082B001900091009BAC
:100C60000199034A88581843885002B07047C0461B
:100C70004810000010B585B00092024600980B9C09
:100C80000A9C099C089C079C049203AA117002907C
:100C9000019302980199084307990843089908436A
:100CA000099908430A9908430B9908430499127853
:100CB000920089182322D201885005B010BD81B05E
:100CC000009000991120020288580123184388508F
:100CD00001B0704782B001900091009B0199034AD6
:100CE00088581843885002B07047C046281000004A
:100CF00081B0009000990120C2020248885001B0E2
:100D00007047C0460100002684B00091014600985B
:100D1000039102A9087003980978890040182521D9
:100D2000C9014018019001980249405880B204B0AE
:100D30007047C0460050550081B000900098812156
:100D400049014058C0B201B07047000010B584B0EE
:100D5000079C069C039002910192009303983149ED
:100D600040180299019A1143009A1143064A00F073
:100D700065F80398054940180699079A1143044AF3
:100D800000F05CF804B010BD010013000811000071
:100D900007001F1F81B000900099024A0248885046
:100DA00001B0704704080000030000B180B582B0B4
:100DB0000190009101980D49401800990978A922E5
:100DC000120689180A4A00F089F8019811210902CF
:100DD0004018009949680722120600F07FF8009831
:100DE00040780199B64A885002B080BD08080000DA
:100DF000030000FF82B001906846018000880199DD
:100E0000014A885002B070471411000081B0009070
:100E10000099044A885801231B021843885001B0E6
:100E20007047C0460411000082B001900199881EED
:100E3000001F00BFFCD2009002B0704784B0039046
:100E400002910192039800680090009801998843EC
:100E5000009000980299019A114008430399086094
:100E600004B0704784B00390029101920398006827
:100E70000090009801998843009000980299019A87
:100E8000114008430399086004B0704784B0039090
:100E9000029101920398006800900098019988439C
:100EA000009000980299019A114008430399086044
:100EB00004B0704784B003900291019203980068D7
:100EC0000090009801998843009000980299019A37
:100ED000114008430399086004B0704784B0039040
:100EE000029101920398006800900098019988434C
:100EF000009000980299019A1140084303990860F4
:100F000004B0704770B587B0009314460D46009941
:100F100002460E980D980C980B9B069205AA157028
:100F20000494039102A90B8001AB18800498039CE0
:100F300020430E9C240120430D9C20431B881B0151
:100F40001843098808430699127812018918092262
:100F50005202885007B070BD83B0009101460098DE
:100F6000029101A908700298097809014118092025
:100F70004202885802239843885003B0704783B0D8
:100F8000009101460098029101A908700298097821
:100F90000901411809204202885802231843885049
:100FA00003B0704783B0009101460098029101A9F7
:100FB000087002980978090140183349405880B2F6
:100FC00003B07047F0B589B00491014604980891C8
:100FD00007A905910870069208980978069F7A6813
:100FE000BB68BC89FD893E697F69039702960195BC
:100FF0000094FFF787FF059908980978069B1A78EF
:101000005B7800F043F809B0F0BD000084B00092B6
:1010100002460098039202AA117001900198039968
:10102000127812018918024A885004B07047C046ED
:101030000812000084B0009202460098039202AAAF
:101040001170019001980399127812018918024ACF
:10105000885004B07047C0460412000085B000926A
:101060000A460099019202460198049203AA107060
:1010700002A8018000880499127812018918024A96
:10108000885005B07047C0460C12000010B586B0FD
:10109000019303460198059304AB197003A90A70E4
:1010A00002AA107005981B789B00C018044BC0184A
:1010B000097812781143BF22FFF7FCFE06B010BD7D
:1010C0001011000082B001900091009B0199094A23
:1010D00088581843885002B07047C04682B00190CB
:1010E0000091009B0199034A88581843885002B028
:1010F0007047C0464810000082B0019000910098EF
:10110000019995225201885002B0704782B0019037
:1011100000910098019995225201885002B07047C1
:1011200082B0019000910098019995225201885057
:1011300002B0704782B00190009100980199952209
:101140005201885002B0704782B00190009100981F
:10115000019995225201885002B0704782B00190E7
:101160000091009B0199034A88581843885002B0A7
:101170007047C0462810000082B00190009100988E
:101180000199024A885002B07047C046D012000050
:1011900081B0009000990120C2020248885001B03D
:1011A0007047C0460100002682B00190009101986E
:1011B000024940580099084002B0704738100000BA
:1011C00010B584B0069C039002910192009302989E
:1011D00001990843009908430699084303490843C5
:1011E00003998900144A885004B010BD810004009E
:1011F00081B00090009881000F4A8120885001B092
:101200007047C04682B0019000910098034908439E
:1012100001998900084A885002B070478000040094
:1012200082B00190009100988021084301998900C3
:10123000014A885002B070470480424082B0019059
:10124000009101982721C90140580099084002B037
:10125000704782B00190009101982721C901405840
:101260000099084002B0704781B000900099024A8E
:101270000248885001B0704704080000030000B124
:1012800082B001900091009801990C4A885002B0F8
:101290007047C04682B00190009100980199074ABA
:1012A000885002B07047C04682B00190009100980B
:1012B0000199024A885002B07047C046901200005F
:1012C00082B001900091009B01999D2042018858B5
:1012D0001843885002B0704782B001900091009886
:1012E0000199024A885002B07047C046B01200000F
:1012F000F0B584B001242202344B19680392914363
:10130000196056490D686D04FCD5457E25409E69DF
:10131000A64374199C612024045D03252C40DE69DA
:10132000AE433419DC611F4C256805262660466AE9
:1013300037681F6276685E6207262E402660C469A1
:101340007F252D02DE69AE436406640C3419DC612E
:101350000768456882680092C6680269019242691E
:1013600002929A69104C14403A07120B2D03ADB249
:10137000AA183243009D2D072D0D1543019A1543E0
:10138000029A1543007E2843084A024010199861CA
:101390001868039A1043186008688005FCD504B0EB
:1013A000F0BDC046001340408D00F0FF72FF0F00FB
:1013B000064908680122904308607047034908689D
:1013C00001221202904308607047C04608010B409A
:1013D00081B001466846017000780249086001B09A
:1013E0007047C04608030B4080B582B0014601A893
:1013F000018001880F2002021748FFF71FFD02B08D
:1014000080BDC04680B582B0014601A80170017858
:1014100002480322FFF712FD02B080BD00010B401D
:1014200080B582B0014601A8017001780A483022D7
:10143000FFF704FD02B080BD0749886007480268D5
:101440009202FCD5012212040B6813430B60016861
:10145000C906FCD57047C04604010B4004020B408E
:1014600009490868052210430860704781B0009060
:101470000549042008600098401E0449086004499A
:101480000020086001B0704710E000E014E000E0C8
:1014900018E000E080B58CB00B900A910A98407972
:1014A000C00700285CD0FFE70A9800790790002861
:1014B00004D0FFE7079820280CD018E00B9888216B
:1014C0000691022200F0B8F906990B98032200F069
:1014D000B3F919E00B98212109010591022200F0CE
:1014E000ABF905990B98032200F0A6F90CE00B98D4
:1014F0000521C9010491022200F09EF904990B987C
:10150000032200F099F9FFE70B98002202920223D0
:101510000193114600F0AAF9029A0B980323039352
:10152000114600F0A3F90199029B0B98009119460E
:101530001A4600F0D3F9029B03990B9800911946C3
:101540001A4600F0CBF9019B029A0B98114600F065
:10155000ABF9029A039B0B98114600F0A5F9FFE73F
:101560000A98006808900A98007908A908710A98F2
:10157000807948710B9800F031F80CB080BD000004
:1015800081B000900099024A0120885001B0704754
:101590000811000082B001900091009B0199034A5C
:1015A00088581843885002B07047C0462810000081
:1015B00081B0009000990120C2020248885001B019
:1015C0007047C0460100002681B00090009881213C
:1015D00049014058C0B201B07047000080B58AB0E0
:1015E00009900891089800790790002804D0FFE737
:1015F0000798202812D029E0099808990968491EFF
:1016000000F0E4F9099888210691002200F014F90D
:1016100006990998012200F00FF92AE00998089923
:101620000968491E00F0D2F909982D490491002259
:1016300000F002F9049909980122059200F0FCF8E3
:1016400005990998490700F0B1F912E0099808993D
:101650000968490800F0BAF909980521C901039100
:10166000002200F0E9F803990998012200F0E4F85B
:10167000FFE709980023019319461A4600F0F6F88F
:10168000019A099801230293114600F0EFF8019B9B
:101690000998009319461A4600F020F9019B029917
:1016A0000998009119461A4600F018F9019B09980B
:1016B00019461A4600F0F8F8019A029B099811465B
:1016C00000F0F2F80998C0494018089A1179527947
:1016D000114302221143034AFFF7D8FB0AB080BD31
:1016E00001040000BFFF003080B584B00390029178
:1016F00003980299496800F069F90298007801900E
:10170000222856D80198810001A040588746C0463B
:10171000A9170000B3170000A9170000B3170000B5
:10172000B3170000B3170000B3170000B317000091
:10173000B3170000B3170000B3170000B317000081
:10174000B3170000B3170000B3170000B317000071
:101750009D170000B31700009D170000B31700008D
:10176000B3170000B3170000B3170000B317000051
:10177000B3170000B3170000B3170000B317000041
:10178000B3170000B3170000B3170000B317000031
:101790009D170000B31700009D170000039801215A
:1017A000490700F003F905E00398002100F0FEF876
:1017B00000E0FFE70398029909690022009200F017
:1017C000ADF8009B03980299C9681A4600F04EF8DC
:1017D00002990878097A084303997B4A885004B033
:1017E00080BDC04681B000900099C84AC848885062
:1017F00001B0704782B001900091009801991122C8
:101800001202885002B0704780B584B003900291F4
:1018100001A802700399224A891800910178009862
:101820008900401800900098029907229204FFF75F
:101830002DFB04B080BDC04680B584B003900291FA
:1018400001A802700399074A89180091017800984D
:1018500089004018009000980299034AFFF716FB90
:1018600004B080BD70180000DB06C00F10B586B054
:1018700005900491039202A803700599084A8918FB
:10188000019101780198890040180190019804990C
:10189000039A1143034AFFF7F9FA06B010BDC04698
:1018A000301800007777020010B586B005900491DB
:1018B000039202A8037005993122D201891801917F
:1018C0000178019889004018019001980499039AC1
:1018D00011438F22FFF7DAFA06B010BD10B587B0BA
:1018E0000091044600980999069405900492039388
:1018F00002A801700699084A891801910178019897
:1019000089004018019005980499084303990843F9
:101910000199086007B010BD5018000084B0039012
:10192000029101A802700399064A89180091017872
:10193000009889004018009002980099086004B04F
:101940007047C0461018000082B0019000910098C6
:10195000007801998A4A88500098407801990122BC
:1019600012038850009880780199A04A885002B0EC
:101970007047C04610B586B001930B4601460198EA
:10198000059104A90B8003AB1A8002AA1080059868
:101990000D4C001909881B88194312881143024A0B
:1019A000FFF74CFA06B010BD80FF000080B582B092
:1019B00001900091019804494018009903221207F0
:1019C000FFF764FA02B080BD0418000082B00190F5
:1019D000009100980199024A885002B07047C046B1
:1019E0000818000081B00090009911200202885868
:1019F00001239843885001B0704781B0009000994E
:101A000011200202885801231843885001B0704702
:101A100082B00190009100980199024A885002B06A
:101A20007047C0465810000081B000900099112006
:101A30000202885801235B041843885001B07047A4
:101A400082B001900091009B0199034A8858184385
:101A5000885002B07047C0462810000081B0009046
:101A6000009911200202885804231843885001B0BD
:101A70007047000081B0009000990120C202024826
:101A8000885001B07047C0460100002681B0009028
:101A90000098812149014058C0B201B07047000050
:101AA00080B582B0019000910198FFF79BFF0198EB
:101AB000112109024018009A1188937819439288DD
:101AC0001143084AFFF7CEF9019824494018009ABB
:101AD0009179D3791943127A11437E22FFF7C2F923
:101AE00002B080BD1867020081B0009000980249E2
:101AF0004058C0B201B070472411000081B000907E
:101B00000099024A0248885001B07047040800005A
:101B1000030000B180B584B0039002910192039854
:101B20000B49401802990B4AFFF788F903980A49B4
:101B3000401801993F22FFF781F90399074A881855
:101B4000895801221140FFF779F904B080BDC046E1
:101B500010110000FFFF000014110000041100002C
:101B600082B001900091009800780199044A885051
:101B700000984078019901221203885002B0704702
:101B80000810000080B582B00190009101981121E9
:101B90000902401800990322D203FFF74FF902B05F
:101BA00080BD000080B584B0019101460198039189
:101BB00002A9087003980D4A801809787022FFF76F
:101BC0003DF904B080BDC04680B584B001910146A6
:101BD0000198039102A908700398044A80180978B3
:101BE0000722FFF72BF904B080BDC0460C1100009E
:101BF00080B582B0032041067A48FFF7D5FA3E4906
:101C000001910860112001053C48FFF7CDFA01461B
:101C100001983B4A1160C0788007002813D5FFE780
:101C2000012081066F48FFF714FB002805D1FFE76C
:101C300034490868401E086004E032490868401CC6
:101C40000860FFE719E02C48C0784007002813D54A
:101C5000FFE7012041066348FFF7FBFA002805D1A2
:101C6000FFE728490868401C086004E02549086827
:101C7000401E0860FFE7FFE7FFE721488078C006C5
:101C8000002813D5FFE7012001061C48FFF7E1FA01
:101C9000002805D1FFE71C490868401E086004E0E1
:101CA00019490868401C0860FFE719E01448C0782B
:101CB000C007002813D0FFE7012001050F48FFF7F8
:101CC000C8FA002805D1FFE70F490868401C0860E2
:101CD00004E00D490868401E0860FFE7FFE7FFE7E2
:101CE000032041063F48FFF7F9F911200105034899
:101CF000FFF7F4F902B080BDB406202000200A40AE
:101D0000B8062020700020207400202080B584B008
:101D100003900020009002A90870FFE702A8007855
:101D200007285CDCFFE702A80078C007002806D17E
:101D3000FFE7012041022B48FFF7B6FA05E001203A
:101D400041022848FFF700FAFFE702A80078800761
:101D5000002806D4FFE70120C1062248FFF7A4FAB5
:101D600005E00120C1061F48FFF7EEF9FFE702A8D2
:101D700000784007002806D4FFE701200106194833
:101D8000FFF792FA05E0012001061648FFF7DCF99B
:101D9000FFE701A900200870FFE701A800780728E5
:101DA0000CDCFFE700F0E6F80146009840180090D0
:101DB000FFE70198401C01A90870EEE70098C008F1
:101DC000039902AA13780722D21A520088520020DF
:101DD0000090FFE70298401C02A908709EE704B03B
:101DE00080BDC04600000A4080B584B002900191D9
:101DF0000298FFF78BFF019802991022FEF774F901
:101E00000298AB21405C002804D1FFE703A9002021
:101E1000087003E003A901200870FFE703A8007819
:101E200004B080BD80B584B0029001910298AB21CE
:101E3000405C002804D1FFE703A90020087009E0F6
:101E40000198029910311022FEF74EF903A90120E2
:101E50000870FFE703A8007804B080BD80B588B0A3
:101E6000079006911948059007980021FEF7E2FBBC
:101E7000002806D1FFE706980121C90748400690CF
:101E800000E0FFE707980190069811490291FEF7DC
:101E9000A8F9012189070391FEF7E0F901460198AD
:101EA000FEF797F90299314A9060079804900698D6
:101EB000FEF797F90399FEF7D1F901460498FEF76A
:101EC00037F92B49886008B080BDC04600006040EB
:101ED0008FC2F53D80B58AB00990089109984142BA
:101EE0001D48009001600899494241600068FEF772
:101EF000C5FB01460098079140684042FEF7BEFBD3
:101F00000690079815490191FEF76BF9FEF728FC3A
:101F1000134A0292134B0393FEF790FA00220492A5
:101F2000114B0593FEF7F2FAFEF72EFC01990F4ACA
:101F300010600698FEF755F9FEF712FC029A039B13
:101F4000FEF77CFA049A059BFEF7E0FAFEF71CFC0C
:101F5000074908600AB080BDCC0420200000484337
:101F6000FAEDEBC03923CA3F00608840940020207E
:101F7000A400202080B584B003A902910020019024
:101F80000880012080070090FEF740FF009801992B
:101F9000FEF7BAFE0199024602980280024A1170C9
:101FA000008804B080BDC046F705202080B586B00B
:101FB0000590049104980599FEF70BF92B490860E8
:101FC0005E4800680968FEF70CF9039003985C49C5
:101FD000FEF714FB002803D1FFE759480390FFE701
:101FE00003985849FEF726FB002803D1FFE7554820
:101FF0000390FFE75448006800901C4800681C49A3
:102000000968FEF7E6F801460098039A0192FEF788
:10201000E8F80199FEF78CF801461648029000682E
:10202000FEF786F801460298016000684949FEF70C
:10203000E5FA002804D1FFE70E4946480860FFE7AB
:102040000C4800684449FEF7F5FA002804D1FFE780
:10205000084941480860FFE70448006804490860EF
:1020600004480068FEF73EFB06B080BD78002020E3
:102070007C0020208000202080B586B0059004914F
:1020800004980599FEF7A5F82B4908602B480068CD
:102090000968FEF7A6F8039003982949FEF7AEFAFF
:1020A000002803D1FFE726480390FFE7039825495E
:1020B000FEF7C0FA002803D1FFE722480390FFE7AC
:1020C0002148006800901C48006820490968FEF714
:1020D00080F801460098039A0192FEF782F8019970
:1020E000FEF726F801461A4802900068FEF720F82D
:1020F00001460298016000681649FEF77FFA002841
:1021000004D1FFE7124913480860FFE71048006850
:102110001149FEF78FFA002804D1FFE70C490E4859
:102120000860FFE70448006808490860084800683C
:10213000FEF7D8FA06B080BD840020200C002020D5
:1021400000007A4400007AC410002020880020207B
:102150008C0020200080BB450080BBC580B588B0C6
:10216000C82001F0E9FC014607A8017000780128A9
:1021700045D1FFE75C480078059004283DD80598D4
:10218000810001A0405887469D210000BD2100002C
:10219000C5210000D7210000F32100005B48017831
:1021A000491C01705A4A002111700078062804DB8E
:1021B000FFE7564901200870FFE71FE05249012060
:1021C00008701BE04E48049000684E49FDF7B0FFD0
:1021D0000499086012E0474803900068FEF7C0FACF
:1021E000454A464BFEF778F8FEF7CEFA03990860A9
:1021F00004E03F490120087000E0FFE70EE007A877
:102200000078022809D1FFE737480078002804D178
:10221000FFE7364901200860FFE7FFE7C82001F02B
:1022200045FD014607A801700078012846D1FFE767
:102230002D480078029004283FD80298810001A020
:1022400040588746592200007D2200008522000068
:1022500097220000B32200002D49002008702B486F
:102260000078012804D1FFE728490520087004E020
:1022700026490878401E0870FFE71EE0224900202A
:1022800008701AE01E48019000682349FDF750FFCE
:102290000199086011E0174800900068FEF760FAA5
:1022A000154A1C4BFEF718F8FEF76EFA0099086005
:1022B00003E00F4902200870FFE712E007A800784A
:1022C00002280DD1FFE708480178491C0170007809
:1022D000052804DBFFE7044900200870FFE7FFE75B
:1022E000FFE708B080BDC046DC062020E0042020C7
:1022F000BD062020240020207B14AE47E17A843FD5
:102300003C00202017B75138BC0620203400202084
:1023100090082020E17A84BF17B751B880B582B009
:10232000014601A801800088002803D1FFE700F0E2
:1023300017F810E009490888401C088080B201A9FC
:102340000988884206D1FFE700F012F8034900200F
:102350000880FFE7FFE702B080BDC0469000202064
:1023600080B5012041020648FEF7DAFE80BDC04676
:1023700080B5012041020248FEF7AEFF80BDC04695
:1023800000200A4010B5A0B01F901E911D921F980A
:1023900000F0BCF81F990A46A032A0230020C850C4
:1023A000594951601F9AA9230121D1540A90FFE78E
:1023B0000A98072800DDA1E01D980A994A00805A72
:1023C0001E99895A884212DBFFE71E980A99490034
:1023D000405A0BA908801D980A994A00805A1E99F4
:1023E00088520B981D990A9A52008852FFE71E984E
:1023F0000A994A000792805A40001D99895A40184C
:1024000003210891FEF7DCF9079B08991F9AD2185F
:102410004023D0521E980A9A53000993C05A1D9A1D
:10242000D25A52008018FEF7CBF9099A1F998918E1
:10243000502288521D980A994A00805A1F9989187B
:1024400008861E980A994A00805A1F99891808849C
:102450001E980A994900405A002807D1FFE71D98A5
:102460000A994900405A002809D0FFE71E980A99A6
:102470004A00805A1D99895A884208D1FFE71F985F
:102480000A99C900411800204866086632E01E9883
:102490000A99049149000191405AFEF715F90290FA
:1024A0000846019903901D98405AFEF70DF902461F
:1024B00002980B460399FDF7B3FF03460498C40046
:1024C0000CAA1019135141601F9806900146A031C3
:1024D000A023C05849680A9BDC00059413191259BF
:1024E0005B68FEF713F8059B0A460699C9184A6609
:1024F0000866FFE70A98401C0A9059E71F99AB222B
:102500000120885420B010BD0000B04083B002907C
:10251000029900200090C8638863486308630299A9
:10252000C8628862486208620299C861886148612D
:1025300008610299C8608860486008600190FFE700
:10254000019807280CDCFFE702980199C90041189F
:10255000002048660866FFE70198401C0190EFE7FD
:102560000299A822002088540299A922885402992D
:10257000AA2288540299AB22885403B07047B0B5A0
:1025800084B003900398FFF7C1FB039801464031E4
:10259000024650320346A83301F062F9039801461F
:1025A000603102463032034610330546A035A02480
:1025B00004596D680195009401F04AFD04B0B0BD66
:1025C00080B582B001A900200870FFE701A800785B
:1025D00007281EDCFFE7694600200870FFE7684611
:1025E00000787F280FDCFFE768460078C100964836
:1025F000411801A8027800208854FFE70098401C89
:1026000069460870EBE7FFE70198401C01A90870D4
:10261000DCE700F0DDF802B080BDC04686B00346BE
:1026200005A8037004AB197003A90A706A4600215B
:10263000117000787F2805DCFFE704A800784028A7
:1026400001DBFFE72DE004A90878C2080720821A01
:1026500002AB1A700A78024001A90A700978411A7F
:10266000012088406946087003A8007800280CD033
:10267000FFE7009B05A80078C1007348411802A835
:102680000278885C184388540BE0009B05A800780A
:10269000C1006D48411802A80278885C98438854AC
:1026A000FFE706B07047C04680B582B000F06EF814
:1026B000782001F00BF900F071F8AE2000210191B3
:1026C00000F01BFA0199D52000F017FA019950206B
:1026D00000F013FA0199A82000F00FFA01993F20A9
:1026E00000F00BFA0199D32000F007FA019908468F
:1026F00000F003FA0199402000F0FFF901998D20C4
:1027000000F0FBF90199142000F0F7F9019920205D
:1027100000F0F3F90199022000F0EFF90199A120EE
:1027200000F0EBF90199C02000F0E7F90199DA20F7
:1027300000F0E3F90199122000F0DFF901998120FE
:1027400000F0DBF90199EF2000F0D7F90199D920C9
:1027500000F0D3F90199F12000F0CFF90199DB20C5
:1027600000F0CBF90199302000F0C7F90199A420BD
:1027700000F0C3F90199A62000F0BFF90199AF203C
:1027800000F0BBF9FFF71CFF02B080BD80B501204F
:1027900081030E48FEF7BAFC80BDC04680B501201B
:1027A00081030A48FEF76CFD80BDC04680B501205C
:1027B000C1030648FEF7AAFC80BDC04680B50120D3
:1027C000C1030248FEF75CFD80BDC04600200A4000
:1027D00080B584B003A900200870FFE703A8007843
:1027E00007282FDCFFE70398B030C0B20021019129
:1027F00000F083F90199084600F07FF90199102053
:1028000000F07BF9019802A90870FFE702A80078A0
:102810007F2811DCFFE702A80078C1000A484018B1
:1028200003A90978405C012100F067F9FFE70298ED
:10283000401C02A90870E9E7FFE70398401C03A9C0
:102840000870CBE704B080BDCC00202080B501200B
:1028500001070E48FEF75AFC80BDC04680B5012036
:1028600001070A48FEF70CFD80BDC04680B5012077
:10287000C1070648FEF74AFC80BDC04680B501206E
:10288000C1070248FEF7FCFC80BDC04600000A40BC
:10289000B0B58AB004460E9809AD2C7008AC217012
:1028A00007A90A7006AA137005AA1070089801AA51
:1028B000107007982038087003A900200870FFE7FF
:1028C00003A8007806A90978884264DAFFE706A819
:1028D00000780C280CD1FFE707A800780C214143B1
:1028E0002F48401803A90978405C04A908700AE041
:1028F00007A8007801012948401803A90978405C1D
:1029000004A90870FFE702A900200870FFE702A8E9
:102910000078072839DCFFE704A8007800060028C3
:1029200009D5FFE709A8007808A9097805AA12784F
:10293000FFF774FE0AE009A8007808A9097805AA3B
:10294000127853425A41FFF769FEFFE704984000AE
:1029500004A908700898411C08A80170007801A912
:102960000978401A06A90978884208D1FFE701983A
:1029700008A908700998401C09A9087005E0FFE73C
:102980000298401C02A90870C1E7FFE70398401CA9
:1029900003A9087094E70AB0B0BDC046A057000074
:1029A0002C530000B0B58CB0044610980BAD2C70C1
:1029B0000AAC2170099208A90B7007A9087004A934
:1029C0000020087006A90870FFE706A8007808A98B
:1029D0000978884252DAFFE7099802900899069828
:1029E000C0434018C1B20A20039001F086FB0146A3
:1029F0000298FDF7E5FE0399FDF7E2FE05A80170D8
:102A000004A80078002822D1FFE706A8007808A9CA
:102A10000978491E88421ADAFFE705A800780028DD
:102A200010D1FFE70B9807A90B785A080699514374
:102A300040180AA9097801220092C0B22022FFF7AB
:102A400027FF16E004A901200870FFE7FFE70B98B5
:102A500007A90B785A080699514340180AA9097822
:102A6000059A303201240094C0B2D2B2FFF710FFB1
:102A7000FFE70698401C06A90870A6E70CB0B0BD99
:102A800080B586B005AB187004A801700392FFE70B
:102A90000398007800282ED0FFE705A800787B284F
:102AA00008DBFFE705A9002008700498103004A98E
:102AB0000870FFE704A800783B2808DBFFE705A9BA
:102AC0000020087004A90870FFF77AFDFFE705A849
:102AD0000290007804A90978039A127801230093E0
:102AE0000C23FFF7D5FE029905980830087003986B
:102AF000401C0390CCE706B080BD80B584B003AA2B
:102B0000107002A801700078002803D0FFE7FFF7DB
:102B100055FE02E0FFF74AFEFFE701A9002008701A
:102B2000FFE701A8007807281ADCFFE7FFF78EFE11
:102B300003A800780006002803D5FFE7FFF79EFEF4
:102B400002E0FFF793FEFFE7FFF788FE03984000DF
:102B500003A90870FFE70198401C01A90870E0E78D
:102B6000FFF72CFE04B080BD80B58AB01749012064
:102B7000079080070990FEF719F907990998002333
:102B800006930193009349041A46FEF7DFF8069B6B
:102B90000998049303930293019300930722194623
:102BA000FEF768F809981821FEF724F907990998A3
:102BB00009020891FEF750F808990998FEF78AF87B
:102BC0000998FEF77CF80AB080BDC046A852000004
:102BD00080B5034A03480021FEF7F4F980BDC046E2
:102BE000B052000000A0424080B5FFF7F1FF80BD69
:102BF00080B58CB00E2008210291FEF711FBEF4842
:102C00000A900421FEF7B8FA02990F20FEF708FB9C
:102C100002990A98FEF7B0FA142002210391FEF7F8
:102C2000FFFA03991520FEF7EDFA03991620FEF737
:102C3000F7FA03991720FEF7E5FA1E20FEF7D8FAF7
:102C40001F20FEF7D5FA0398FEF7D2FA052006906A
:102C5000FEF7CEFA002304930093272019461A4664
:102C6000FEF7AEFA1920FEF7C3FA2520FEF7C0FAE8
:102C70002620FEF7BDFA2320FEF7BAFA2220FEF73F
:102C8000B7FA049B0093362019461A46FEF798FAC5
:102C9000049B00933A2019461A46FEF791FA049BCA
:102CA00000932F2019461A46FEF78AFA049B0093D8
:102CB000332019461A46FEF783FA1320FEF798FAD6
:102CC0003B20FEF795FA3520FEF792FA049B00931D
:102CD000182019461A46FEF773FAB74807901849A4
:102CE0000591FEF709FA05990798FEF745FA069946
:102CF00007988904FEF7E4FA07980321490608912A
:102D0000FEF7E0F907980899FEF728FA0A9861217A
:102D100049020991FEF7F0F909990A98FEF72CFA91
:102D20000A980849FEF7CCFA0A98112109050B9177
:102D3000FEF7C8F90A980B99FEF710FA0CB080BD9F
:102D4000006203990001010080B584B01E49E1488A
:102D50000390FEF7F9FD03981C49FEF79BFB0398CF
:102D60000023019319461A46FEF704FE019B0398BF
:102D7000009319461A46FEF7B1FD019A03981146D1
:102D8000FEF742FD019A03981146FEF7C7FD019B2D
:102D9000039801210291009119461A46FEF79EFD03
:102DA0000199029A0398FEF72FFD0199029A039860
:102DB000FEF7B4FD0398FEF7E3FB03980321FEF74B
:102DC00019FD04B080BDC046C8520000CC520000BE
:102DD00080B582B000200190FEF7FAFA0120009041
:102DE0004002FEF701FB0198FEF70CFBFEF7E0FA4C
:102DF000FEF7E4FA0748FEF77BFA1020FEF710FB17
:102E00000198FEF719FB0098019900F04BFB02B006
:102E100080BDC046D452000080B501200006FEF7F8
:102E200025FBFEF71DFB80BD80B582B008496448D4
:102E30000190FEF789FD01980649FEF755FC0198BF
:102E40000121FEF7A7FB0198FEF79AFB02B080BDB7
:102E5000FC5200000053000080B582B0124959486E
:102E60000190FEF77DFE01981049FEF719FE0198CA
:102E70000021FEF787FE019815212D22FEF74AFE5C
:102E80000198FEF7D1FD01987021FEF78BFE0198A5
:102E90000221FEF799FE0198FEF7E0FD0198FEF78A
:102EA000ACFD02B080BDC0461453000016530000B4
:102EB00080B582B0134944480190FEF751FE019855
:102EC0001149FEF7EDFD01980021FEF75BFE019828
:102ED000412189001B22FEF71DFE0198012100916E
:102EE000C903FEF7ADFD00990D2000F0DBFA009953
:102EF00001988902FEF78CFD0198FEF77EFD02B075
:102F000080BDC046205300002253000080B500F071
:102F100019F8FFF76DFEFFF75BFFFFF715FFFFF7EF
:102F200083FFFFF799FFFFF7C3FFFFF71DFEFFF7D2
:102F30005BFEFFF771FF0249B8220020885480BD74
:102F4000F805202080B588B061480190FEF78CF923
:102F50001A480290FEF788F95E480390FEF742FC9B
:102F600017480490FEF73EFC16480590FEF7C6FD94
:102F700015480690FEF7C2FD012080070790FDF777
:102F800009FF0198FEF704F90298FEF701F903988A
:102F9000FEF70EFB0498FEF70BFB0598FEF76AFDA3
:102FA0000698FEF767FD0798FDF7A2FE1020FDF7D3
:102FB0003BFF08B080BDC04600000A4000200A4028
:102FC00000400840008010400000104080B58EB0E6
:102FD0000D900C910D9801281DDBFFE701200A9050
:102FE00041043B480B90FEF755F90A990B980904E8
:102FF000FEF7A0F80D98012803DBFFE70D98099074
:1030000003E00D9840420990FFE7099931480022FA
:10301000FEF784FC1CE00120079001042C48089076
:10302000FEF738F9079908984904FEF783F80D98D8
:10303000012803DBFFE70D98069003E00D9840425E
:103040000690FFE7069923480022FEF767FCFFE79A
:103050000C9801281DDBFFE70120049041031C4868
:103060000590FEF717F9049905988903FEF762F8B1
:103070000C98012803DBFFE70C98039003E00C9801
:1030800040420390FFE7039912480122FEF746FCF5
:103090001CE00120019081030D480290FEF7FAF830
:1030A000019902984903FEF745F80C98012803DBC3
:1030B000FFE70C98009003E00C9840420090FFE777
:1030C000009904480122FEF729FCFFE70EB080BDFD
:1030D00000000A4000208640014800687047C04652
:1030E00018E000E010B59CB0A848FEF76DFA002883
:1030F00000D149E1A6490868401C0860FFF72EF896
:103100006420FFF70BF9A3480068002805D1FFE70A
:1031100000210846FFF75AFFFFE79E480068012894
:1031200058D1FFE79E4818A9FEF77CFE002850D032
:10313000FFE7A1490A910868A04A0F921060A048D1
:1031400013900068086018A800F020FC014613984E
:1031500001600068FDF7A4FA02460A980B920C91F0
:103160000068FDF79DFA974A1092974BFDF766F9B4
:1031700002460B980D920A460C990E92934A944B74
:10318000FDF75CF90D9A0E9BFDF7A6F802460F9825
:10319000119212910068FDF783FA109A8D4BFDF79A
:1031A0004DF9119A129BFDF797F8FDF7B5FA014614
:1031B0001398016088490968884A11600068404294
:1031C000FDF75CFA86490968FDF70BF88549086048
:1031D000FFE753E06F48006802284ED1FFE76E49D1
:1031E0000888401C08806D480078012806D1FFE758
:1031F00068490020086069490870FFE76648008850
:10320000642839DBFFE7664814A9FEF70BFE0028A7
:1032100031D0FFE714A840886249884212DBFFE7FB
:1032200014A88088604988420CDBFFE714A8C08896
:103230005D49884206DBFFE714A800895B498842A4
:1032400018DCFFE75349012008605149002008605D
:103250005149088056480178491C01700078554949
:1032600009788900884204D1FFE74C4901200870A1
:10327000FFE7FFE7FFE7FFE7FFE7FFE745480068F5
:10328000012841D1FFE75548564909680068FEF713
:10329000E5FD584806900368584A1168C91811603E
:1032A000554905910C68564B1A6812191A60006846
:1032B0000968FEF70FFE059A069900201060086065
:1032C0004948079081680068FEF770FEFDF7D6F95F
:1032D000079948604648089081680068FEF7CCFE70
:1032E000FDF7CCF9089A0146079851604068FDF750
:1032F000F9F90146089809914068FDF7F3F901468C
:103300000998FFF763FE3EE022480068022839D1A1
:10331000FFE73549029135488860354903917D20A2
:10332000C0058860334801900068334900910968FE
:10333000FEF7D0FD009B019A0298002119601160F0
:1033400081680068FEF732FEFDF798F9029A01469F
:103350000398516081680068FEF78EFEFDF78EF9D4
:10336000039A0146029851604068FDF7BBF9014697
:10337000039804914068FDF7B5F901460498FFF7FA
:1033800025FEFFE7FFE7FFE71CB010BD0040084047
:1033900038002020E0042020E6042020E40420203F
:1033A000E0072020FC080000FD080000FB080000EA
:1033B0009008202034002020D4062020D006202091
:1033C000D80620209A9999999999C93F66666666A8
:1033D0006666E63F9999B93F24002020B40020207A
:1033E0003C002020B800202094002020CDCC4C3D73
:1033F000A40020207000202074002020D804202069
:10340000DC04202080B582B00D48FEF73FFB01466A
:1034100001910B2804D0FFE7019810280AD00CE096
:103420000748FEF761FB074B1A78511C19700649D3
:10343000885403E0FDF7ECFBFFE7FFE702B080BD37
:10344000000010402E0520202F05202081B00146CD
:103450006846017000214056002809D4FFE76846FD
:1034600001781F2001400120884002490860FFE7E1
:1034700001B0704780E200E081B00146684601700B
:1034800000214056002809D4FFE7684601781F2034
:1034900001400120884002490860FFE701B0704701
:1034A00000E100E070B582B0024601A80270009110
:1034B00000214056002816D4FFE7002401A9085730
:1034C0000322D3431840174A805809578C07E50E4A
:1034D000FF24AC40A043009CA401E4B2AC402043D4
:1034E000194088501AE001A908780F2420400838B4
:1034F0000322D34318400A4A8058002549578D07B4
:10350000EE0EFF25B540A843009DAD01EDB2B540DC
:1035100028432140083919408850FFE702B070BDA8
:103520001CED00E000E400E010B58CB001460BA8F3
:1035300001700178B548016000684B2804D1FFE7AD
:10354000B349012008600EE0B0480068492805D062
:10355000FFE7AE4800684A2804D1FFE7AC490020E5
:103560000860FFE7FFE7AA480068002820D1FFE7CE
:10357000A648006841280BDBFFE7A44800684828FC
:1035800006DCFFE7A14800684038A44908600EE067
:103590009E480068082805DCFFE79C4800689F49B2
:1035A000086003E09D4900200860FFE7FFE739E07D
:1035B00097480068012834D1FFE794480068432801
:1035C00007D1FFE793490020086093490120086074
:1035D00012E08E480068472807D1FFE78D49012097
:1035E00008608D490020086005E08A4900200860D5
:1035F00089490860FFE7FFE784480068412805D053
:10360000FFE782480068452806D1FFE77F48006849
:1036100040388249086003E0804900200860FFE7E5
:10362000FFE7FFE779480068582809D1FFE77C48A1
:103630000A9000687B49FCF77BFD0A990860FFE768
:1036400072480068592809D1FFE775480990006859
:103650007549FCF76DFD09990860FFE76B48006844
:103660007B2804D1FFE7714901200870FFE7674814
:1036700000687D2804D1FFE76C4902200870FFE74D
:103680006A48007801280AD1FFE760480068684965
:103690000B78684AD0540878401C0870FFE76348EC
:1036A0000078022800D0AEE06248C078502804D1EB
:1036B000FFE76A490120087097E05E4840782328B8
:1036C00000D191E05A4800785B490870FFE75A48FA
:1036D0000078042838DBFFE7574800780190554907
:1036E0004018401E00783038FCF7DAFF0490084696
:1036F000019905904E480078401AFCF7D1FF024628
:103700000B460020544901F069F8029003914B48A0
:1037100008900068FDF724F8029A039B0446049879
:1037200006940C4605990794FCF788FE069A079BB9
:10373000FCF7D2FDFDF728F808990860FFE73E493D
:103740000878401E0870C2E73A4840783038009048
:10375000082848D80098810001A040588746C046F4
:10376000853700008F37000099370000A33700002D
:10377000B3370000C3370000D3370000E337000041
:10378000E53700002D480068254908602BE02B48EC
:1037900000683049086026E0284800682C49086025
:1037A00021E0264800681F49FCF758FD27490860BA
:1037B00019E0224800681B49FCF750FD22490860C7
:1037C00011E01E4800681749FCF748FD1D490860D4
:1037D00009E01A4800681349FCF740FD18490860E1
:1037E00001E000E0FFE7FFE7FFE710490020087075
:1037F0000F49087010490870104908600D483221BF
:10380000FCF78BFCFFE70CB010BDC046280520205C
:10381000E8042020680020206C0020206400202084
:10382000040020200000C8420000C8C2F404202088
:103830002C052020F50420202D052020F004202038
:10384000300020202C0020202800202008002020EC
:103850000C0020201000202000002440D404202050
:1038600085B0049003910292019300200090FFE73D
:103870000098072828DCFFE7049800994A00805A3E
:103880000399895A884208DDFFE7009801228240A7
:10389000019908781043087011E0049800994A00D3
:1038A000805A0299895A884208DAFFE70098012273
:1038B00082400199087890430870FFE7FFE7FFE72F
:1038C0000098401C0090D3E705B0704780B582B0E7
:1038D000019000200090FFE700980749884208DC2B
:1038E000FFE7019800F00AF8FFE70098401C0090FD
:1038F000F2E702B080BDC046E703000080B586B0A5
:10390000059005981E49884203D3FFE71D4805909E
:10391000FFE705995020484305900020009004904F
:10392000FFF7DAFB014600980391029001A90870A5
:10393000FFE7FFF7D1FB029002980399884204D970
:10394000FFE701A901200870FFE701A8007800281F
:1039500007D0FFE703980299401A0B4940180490DA
:1039600004E003980299401A0490FFE7049805992F
:10397000884201D3FFE700E0DBE706B080BDC04628
:103980003433030033330300FFFFFF0070B590B002
:103990000F9000200E90214A06A978CA78C178CAF3
:1039A00078C1059004900390029001A90870FFE788
:1039B00001A80078072810DCFFE70F9801A9097813
:1039C0004A00815A01200003401A02A98852FFE7E9
:1039D0000198401C01A90870EAE7694600200870B8
:1039E000FFE768460078072812DCFFE768460178A1
:1039F0008A0006A880584A0002A9895A41430E98B5
:103A000040180E90FFE70098401C69460870E8E7F0
:103A10000E986421FCF7F4FE10B070BD88520000CF
:103A200087B006900020059004A9088003A90870BB
:103A300002A90870FFE702A8007807280EDCFFE75C
:103A4000069802A909784900415A0598401805903E
:103A5000FFE70298401C02A90870ECE70598C1082E
:103A600004A801800088214988422EDCFFE701A9D3
:103A70000020087069460870FFE768460078032850
:103A800014DCFFE70698694609784900405A19494D
:103A9000884205DCFFE70198401C01A90870FFE798
:103AA000FFE70098401C69460870E6E701A8007827
:103AB000032809DBFFE70E480078012804D1FFE75F
:103AC00003A901200870FFE70BE004A800887D210E
:103AD0004901884204DBFFE703A902200870FFE7E1
:103AE000FFE703A8007807B07047C046B70B000097
:103AF000BC062020CF07000080B582B001208104E1
:103B000001910448FDF79AFB019908404142484160
:103B100002B080BD00000A4080B582B001200102E1
:103B200001910448FDF78AFB019908404142484150
:103B300002B080BD00200A4080B588B0014606A8CA
:103B400001800088FCF7A5FD01467F20C005FCF739
:103B500085FBAF49FCF745FB0590504800780028ED
:103B600008D0FFE74E49002008704E4908804E49B2
:103B70000880FFE749480078002809D0FFE7FFF7F1
:103B8000BBFF012804D1FFE7444900200870FFE78C
:103B9000FFF7B2FF00280DD1FFE74048007800286A
:103BA00008D1FFE73E49012008703F490888401CC2
:103BB0000880FFE73C480088049005999948FCF785
:103BC0004DFBFCF78FFD01460498884207DDFFE7B7
:103BD00032490120087007A9032008705AE03048D4
:103BE000007800280AD0FFE7FFF786FF012805D1FB
:103BF000FFE72C490888401C0880FFE72848007828
:103C0000002829D0FFE727480088039005998648B7
:103C1000FCF724FBFCF766FD0146039888421BDD98
:103C2000FFE720480088029005998048FCF716FBC2
:103C3000FCF758FD0146029888420DDAFFE7FFF7CE
:103C40005BFF002807D1FFE714490120087007A98E
:103C5000022008701EE019E011480078002814D0F6
:103C6000FFE710480088019005997048FCF7F6FAC4
:103C7000FCF738FD01460198884206DDFFE7074959
:103C80000120087007A9087004E0FFE707A90020D9
:103C90000870FFE707A8007808B080BDBE062020A6
:103CA000C2062020C4062020C006202080B588B08F
:103CB000014606A801800088FCF7EBFC01467F2046
:103CC000C005FCF7CBFA5249FCF78BFA0590514836
:103CD0000078002808D0FFE74F49002008704F49BE
:103CE00008804F490880FFE74A480078002809D03B
:103CF000FFE7FFF711FF002804D1FFE74549002047
:103D00000870FFE7FFF708FF01280DD1FFE74148E2
:103D10000078002808D1FFE73F490120087040499A
:103D20000888401C0880FFE73D48008804900599FA
:103D30003C48FCF793FAFCF7D5FC0146049888420E
:103D400007DDFFE733490120087007A90320087049
:103D50005AE03148007800280AD0FFE7FFF7DCFE80
:103D6000002805D1FFE72D490888401C0880FFE79F
:103D700029480078002829D0FFE7284800880390C8
:103D800005992948FCF76AFAFCF7ACFC0146039850
:103D900088421BDDFFE721480088029005992348EF
:103DA000FCF75CFAFCF79EFC0146029888420DDAAB
:103DB000FFE7FFF7B1FE012807D1FFE71549012012
:103DC000087007A9022008701EE019E01248007868
:103DD000002814D0FFE71148008801900599134886
:103DE000FCF73CFAFCF77EFC01460198884206DDB0
:103DF000FFE708490120087007A9087004E0FFE701
:103E000007A900200870FFE707A8007808B080BD68
:103E100000007A44C6062020CA062020CC062020B6
:103E2000C80620200000FA430000484200009643E4
:103E300080B58EB000200D90FFF768F80120099042
:103E4000FFF704FB0998FFF701FB0F200790FFF72E
:103E5000FDFA0D200890FFF7F9FA0998FFF70CFB1F
:103E60000998FFF709FB0798FFF706FB0898FFF78B
:103E700003FB10200B90FFF7E9FA0B98FFF7FCFA11
:103E80000420FFF7F9FA5F480A90FEF73FFB0A9813
:103E9000FEF775FB0A985C49FDF7A6FF6420FFF763
:103EA00015FD099959480902FCF737F90A9858494C
:103EB000584AFEF767FAFEF7F7FB0B98FFF7C6FACA
:103EC0000B98FFF7D9FAFFE753480078042857D139
:103ED000FFE752480078012826D1FFE749480590BE
:103EE000FEF714FB0598FEF74AFB05984649049136
:103EF000FDF77AFF0499464806901022FCF7F4F883
:103F000000F014F97D208000FFF7E0FC3F4801211C
:103F10000902FCF702F9059806993E4AFEF732FAC3
:103F20003E4900200870FFE73C480078022826D16F
:103F3000FFE734480290FEF7E9FA0298FEF71FFB0C
:103F4000029831490191FDF74FFF019931480390E3
:103F50001022FCF7C9F800F0E9F87D208000FFF797
:103F6000B5FC2A4801210902FCF7D7F80298039A08
:103F70002749FEF707FA294900200870FFE7FFE705
:103F800020480090FEF7FBFA204801210902FCF7C7
:103F9000C4F800981C49FDF727FF002801D0FFE76F
:103FA000FFE718481E49FDF73DFF002801D0FFE755
:103FB000FFE71B48FFF734FD01460CA801700078AD
:103FC00000280FD0FFE71748006801280AD1FFE753
:103FD00015480068C92804DBFFE712490220086081
:103FE000FFE700E0FFE70CA80078FCF752FB0F4961
:103FF0000860FCF7A7FD00F099F80A20FFF766FCBF
:1040000062E7C046E007202050002020DD06202087
:104010004000202014002020DC062020BD062020A7
:10402000BC002020E004202038002020EC042020C8
:1040300082B001900198002804D5FFE70198404222
:10404000009002E001980090FFE7009802B07047EE
:10405000B0B58AB00C4605460F990E98099508949C
:10406000079206930591049000200390FFE70398C0
:10407000072840DCFFE7099803994A00805A07990E
:10408000895A884204DAFFE702A90020088016E076
:104090000998039901914A00805A0799895A401A50
:1040A000FCF7FEFA019B089ADC00131912595B68B1
:1040B000FCF7C4F9FCF730FB02A90880FFE702A86F
:1040C0000088FCF7EDFA049A059BFCF7C1FA00287A
:1040D00007D1FFE704980599FCF71EFB02A90880A9
:1040E000FFE702980699039A52008852FFE7039867
:1040F000401C0390BBE70AB0B0BD83B002AA1070A9
:1041000001A8017001200090FFE701AA1078411E6C
:104110001170002806D0FFE702A8007800994843F4
:104120000090F2E7009803B07047000080B598B0A7
:104130007D4801218902FBF7F0FF7C4A00210846F7
:10414000FEF79EFC7A480078179004285ED81798EE
:10415000810001A0405887466D4100008D4100005C
:10416000AD410000CD410000ED41000070480278F3
:104170000C2000902320002116910223FEF712FC50
:1041800016996C4A3C20FEF77BFC40E068480278B8
:104190000C2000902320002115910223FEF702FC41
:1041A0001599654A3C20FEF76BFC30E060480278C8
:1041B0000C2000902320002114910223FEF7F2FB33
:1041C00014995E4A3C20FEF75BFC20E058480278D8
:1041D0000C2000902320002113910223FEF7E2FB24
:1041E0001399FD4A3C20FEF74BFC10E0F84802789A
:1041F0000C2000902320002112910223FEF7D2FB15
:104200001299F44A3C20FEF73BFC00E0FFE7F3483C
:104210000068002806D1FFE7F34A00200A21FEF7D4
:104220002FFC17E0ED480068012806D1FFE7ED4AB2
:1042300000200A21FEF724FC0BE0E8480068012872
:1042400006D1FFE7E64A00200A21FEF719FCFFE746
:10425000FFE7FFE7E54802780C20009032200A21B2
:104260000223FEF79FFBDA4800781190042877D8E4
:104270001198810001A040588746C0469142000035
:10428000B1420000D1420000FD4200004143000065
:10429000E14A002014211091FEF7F2FB1099DF484B
:1042A00002780C20009032200223FEF77BFB57E0BF
:1042B000D74A002014210F91FEF7E2FB0F99D54851
:1042C00002780C20009032200223FEF76BFB47E0BF
:1042D000CC4A002014210E91FEF7D2FBCA48006898
:1042E000CA49FBF77EFFFCF7FDF90E9902460C2048
:1042F000009032200323FEF755FB31E0BE4A002038
:1043000014210D91FEF7BCFBBC480068BC49FBF7CB
:1043100068FFFCF7E7F90D9902460C200090322067
:104320000223FEF73FFB1BE0CC002020B75D00001E
:10433000DC062020DB5D0000E15D0000F25D000096
:10434000AB4A002014210C91FEF79AFB0C99A94866
:1043500002780C20009032200223FEF723FBFFE7B7
:10436000AF4A00200B901E21FEF78AFB0B99AD4847
:104370000068FCF75FF9002806D1FFE7AA4A302061
:104380001E21FEF77DFBFFE7A64800680021FCF731
:1043900043F9002806D1FFE7A44A30201E21FEF78A
:1043A0006FFBFFE79F480068A1490991FBF719FFE0
:1043B000FCF798F9FFF73CFE02460C2000903820ED
:1043C0001E210423FEF7EEFA9A4A00200A902821C3
:1043D000FEF756FB099998488068FBF702FF0A9997
:1043E000FCF728F9002818D1FFE78F4A1020282170
:1043F0000891FEF745FB904880688D49FBF7F1FE78
:10440000FCF770F9FFF714FE089902460C200090A3
:104410001A200423FEF7C6FAFFE78748806884491C
:10442000FBF7DFFE0021FCF7F7F8002818D1FFE7C3
:104430007E4A102028210791FEF722FB7E488068E3
:104440007B49FBF7CEFEFCF74DF9FFF7F1FD07992D
:1044500002460C2000901A200423FEF7A3FAFFE77F
:10446000754800680021FCF7E5F8002806D1FFE751
:104470006D4A3C202821FEF703FBFFE76E480068E9
:104480000021FCF7C9F8002806D1FFE7674A3C2065
:104490002821FEF7F5FAFFE76748006864490591AF
:1044A000FBF79FFEFCF71EF9FFF7C2FD02460C204A
:1044B00000904420282104910423FEF773FA049904
:1044C0005E4A6020FEF7DCFA5D4A00200690322149
:1044D000FEF7D6FA05995B488068FBF782FE0699DD
:1044E000FCF7A8F8002818D1FFE74F4A1020322126
:1044F0000391FEF7C5FA534880684D49FBF771FEFA
:10450000FCF7F0F8FFF794FD039902460C200090A9
:104510001A200423FEF746FAFFE74A488068444918
:10452000FBF75FFE0021FCF777F8002818D1FFE7C2
:104530003E4A102032210291FEF7A2FA41488068DB
:104540003B49FBF74EFEFCF7CDF8FFF771FD0299F2
:1045500002460C2000901A200423FEF723FAFFE7FE
:10456000384800680021FCF765F8002806D1FFE70D
:104570002D4A3C203221FEF783FAFFE731480068DC
:104580000021FCF749F8002806D1FFE7274A3C2024
:104590003221FEF775FAFFE72A4800682449FBF745
:1045A00020FEFCF79FF8FFF743FD02460C20009029
:1045B0004420322101910423FEF7F4F901991F4AA6
:1045C0006020FEF75DFAFEF703F918B080BDC04623
:1045D000DC062020E95D0000FD5D0000E0042020F5
:1045E0009E5D0000965D0000905D00009008202018
:1045F000BD5D0000BD062020CE5D0000240020200F
:104600000000C842C75D00003C0020200050C347A6
:10461000AF5D0000BC062020A85D00003400202013
:10462000D85D0000B8002020A65D0000A45D000059
:1046300000007A44D45D000094002020F85D000062
:10464000D65D0000A40020202021020C01D0102102
:104650001046020A01D010460839020901D010465E
:10466000091F820801D01046891E420801D0881E09
:104670007047081A704700004900CA020243100040
:1046800000D004204A0D01D001221043044A490DF4
:10469000914201D102210843012800D10520704731
:1046A000FF070000F8B504464F1EC800083821185F
:1046B00015461E46086849683A4606239A4310D0B4
:1046C0002A463346FBF7BAFE3A46D200083AA31808
:1046D0001A687F1E5B68FBF7FFFD06223B4693438B
:1046E000EED1022F23D0042F11D0062F2FD12A462E
:1046F0003346FBF7A3FEE36AA26AFBF7EDFD2A4609
:104700003346FBF79BFE636A226AFBF7E5FD2A4608
:104710003346FBF793FEE369A269FBF7DDFD2A460A
:104720003346FBF78BFE63692269FBF7D5FD2A460A
:104730003346FBF783FEE368A268FBF7CDFD2A460C
:104740003346FBF77BFE63682268FBF7C5FDF8BDC7
:10475000002210B5134610460149FBF7D7FE10BDE5
:104760000000F03F10B5FBF7B7FD10BD002210B5FB
:10477000134610461146FBF7C9FE10BD10B50721C0
:10478000024A00200907FCF737F910BD01030000B9
:10479000034A10B500201107FCF72EF910BD0000E8
:1047A00001FDFFFF0000000002E008C8121F08C161
:1047B000002AFAD170470000704700000000000096
:1047C000002001E001C1121F002AFBD17047000048
:1047D000014908607047000000002020F0B51FB4B8
:1047E00094B084460C460246179D169800904900E6
:1047F00068006300490840080393002A01D001269D
:1048000000E000269E19FB4BF6185B109E422BD34E
:104810006E00009F0196002F00D00127F719F54E7A
:10482000F54BBE199E421FD3009E0346F34F334300
:1048300009D03B469C4201D1002A04D0039B002AA8
:1048400005D0012604E00020394619B0F0BD00264D
:104850009E19EB4B9E4207D8009F019E002F00D06F
:104860000127F6199E4207D92B4660462146169A23
:10487000FFF778FF19B0F0BD0023002C29DAE14ED4
:10488000B04226DAE04EB04201DB022321E0DB4EEB
:10489000B0421EDBDD4E070DBE19142E09DD342794
:1048A000BF1B009EFE400196BE40009FBE420BD043
:1048B0000FE0009F002F0CD11427BF1B0646FE40BF
:1048C0000196BE40864204D1019BDE07F60F02230B
:1048D0009B1B0E46164318D1002D16DA002C03D070
:1048E000022B01D0012B06D00220FFF771FFFFF74A
:1048F0002FFF19B0F0BD0220FFF76AFFFFF728FF76
:104900000122D207514019B0F0BD009E002E61D1A6
:10491000BC4EB04220D1BE48844201D1002A08D00A
:10492000B648814209DB002D10DB1698294619B0E4
:10493000F0BD0020B14919B0F0BD002D06DA01220A
:104940002946D2071698514019B0F0BDB1497944B3
:104950000868496819B0F0BDA84FB84225D1002DAC
:104960001FDA002904D0B14212D1002A09D018E080
:10497000002A72D1A349E20F0020D207114319B0D7
:10498000F0BD0020E20F0146D207114319B0F0BD7F
:10499000B14206DA234600203946FBF7B7FD19B0CD
:1049A000F0BD1046214619B0F0BDB14212DA012621
:1049B000B607B54203D1234610461946EFE3964E9B
:1049C000B54207D1261E05DB1046314600F0F0FB4C
:1049D00019B0F0BD67007F081646002A40D10029B3
:1049E0000AD0884A914229D1002C0EDD002D1CDB13
:1049F0000020114619B0F0BD022B16D0002C14D0A7
:104A0000012B12D1002C14DB0FE0002C28DA002D32
:104A100009DB012B03D000207A4919B0F0BD00203A
:104A20007E4919B0F0BD012B03D00020014619B01A
:104A3000F0BD00200121C90719B0F0BD6F4A9142B5
:104A40000ED1002C01DA002B17D0022B06D000204B
:104A5000C043FBF725FE19B0F0BD7AE20120F8E76C
:104A6000E217521C94461A4307D000220692634C68
:104A700062465B1E1A4307D009E00120FFF7A8FE3B
:104A8000FFF774FE19B0F0BD0022614C0692644A33
:104A900090427DDD634B644A98420ADD914202DC1C
:104AA000002D10DB25E05548814202DB002D0ADC99
:104AB0001FE0914202DA002D05DB1AE04F4B9942CC
:104AC00023DD002D15DD0220FFF782FEFFF756FEE5
:104AD00005460E4600224B4B21460698FBF7AEFCDE
:104AE000084671004908C00FC0070143284619B0A5
:104AF000F0BD0220FFF76CFEFFF74AFE49004908AF
:104B0000E20FD207114319B0F0BD002230463946FA
:104B1000FBF786FC012205460E46D243FBF76CFFED
:104B2000424A434BFBF782FC2A463346FBF786FC9E
:104B30000022394BFBF77AFC07462A46334601919F
:104B400010461946FBF77AFC3A46019BFBF776FCC8
:104B50000746032007912A46334640073549FBF7AD
:104B60006DFC01910890344A324B38460799FBF7A7
:104B700065FC07460291314A314B28463146FBF726
:104B80005DFC3A46029BFBF74BFC07460B4600E0F8
:104B900013E00246079101990898FBF79DFB002559
:104BA0000E462846019B089AFBF73AFC3A46079BBB
:104BB000FBF73CFC02460B468DE1012500202D054C
:104BC000A94207DA352230463946FBF715FF06467B
:104BD0003420C0430A1512180C48084F10180390CF
:104BE0000803000B014639430491164988422BDC27
:104BF00000202DE0FFFF1F00FFFF0F000000F03F2F
:104C00000000E0FF0000F07F0000404301FCFFFFD8
:104C10000000F0BF2E0900000000E03F0000F0FFA0
:104C20000000E0410000F043FFFFEF3F55555555B0
:104C30005555D53F4715F73FFE822B6544DF5DF89C
:104C40000BAE543E8E980300FE49884202DA0120E2
:104C50000F9007E000200F900398401C03900498E9
:104C6000401B0490049909910F98F749C0007944BA
:104C70000D9008184368026830460999FBF7D0FB8D
:104C80000191F249089079440D9808184368026828
:104C900030460999FBF720FB02460B4600203946B7
:104CA000FBF734FC07910A90019B089AFBF7C6FBBF
:104CB0001090E7480F4600257844006804990C904E
:104CC00048100121490708430F9989044018012120
:104CD000C90441180491DF4979440D9808184368C4
:104CE000026804990C98FBF79BFB3246099BFBF783
:104CF0009DFB2A463B46FBF7A1FB09910646284649
:104D00003946049B0C9AFBF799FB019B089AFBF729
:104D10008DFB3246099BFBF783FB079B0A9AFBF747
:104D20008DFB0F91109A00903B4610461946FBF7F9
:104D300085FB06460246C8480B4607910621784483
:104D4000FFF7B0FC079B32460191049010461946CC
:104D5000FBF774FB019B049AFBF770FB019106467D
:104D60003B4628461946109AFBF7B6FA0F9B009A65
:104D7000FBF764FB3246019BFBF7AEFA2A463B4643
:104D80000191089010461946FBF758FB02460B4666
:104D900007910A900020B149FBF79EFA019B089AFF
:104DA000FBF79AFA0E462A46AC4B2846FBF738FB2F
:104DB000079B0A9AFBF734FB019B089AFBF736FB2B
:104DC0002A4609911290334610463946FBF736FBC6
:104DD000019108903B46109A09991298FBF72EFB17
:104DE0000746079133462A460F990098FBF726FBA2
:104DF0003A46079BFBF770FA07460B4602460791B7
:104E000001990898FBF768FA0E462846019B089A14
:104E1000FBF706FB3A46079BFBF708FB0746072014
:104E200007912A46334640078D49FBF707FB02905E
:104E300000918C4A8A4B38460799FBF7FFFA0746E0
:104E400001912A46334688488849FBF7F7FA3A46E3
:104E5000019BFBF741FA864A05467A440D981018E3
:104E6000436802682846FBF737FA089001910398D7
:104E7000FBF716FC0B910746019B089A00990298D4
:104E8000FBF72AFA7B4A05467A440D9810184368C6
:104E900002682846FBF720FA3A460B9BFBF71CFA00
:104EA00000250E463A4628460B9BFBF7B9FA724A94
:104EB00007467A440D981018436802683846FBF795
:104EC000AFFA009B029AFBF7ABFA019B089AFBF73B
:104ED000ADFA02460B461799002002900F4616982D
:104EE000FBF7ACFA039100903B46029A179916988B
:104EF000FBF796FA2A463346FBF7A0FA039B009A83
:104F0000FBF7EAF907910C902A4633463946029896
:104F1000FBF794FA06460F46079B0C9AFBF7DCF961
:104F2000564A0D46914220DB5242AA18024310D144
:104F300032463B46FBF774FA03910890504A514BB6
:104F400007990C98FBF7C8F9039B089AFBF76AFDD1
:104F50001ED20220FFF73CFCFFF710FC4900490875
:104F6000E20FD207114319B0F0BD6A00464B520858
:104F70009A420DD3454AAA18024300D0B9E53246F9
:104F80003B46FBF74DFA079B0C9AFBF74BFDF5D917
:104F90006A00002352083E480393110D3D4B091847
:104FA0009A4223DD01221205491CCA4052195100C0
:104FB000490D081838497944096813468C46374921
:104FC000C1408B4312030121120B09055118142211
:104FD000101AC1400391002D01DA48420390624645
:104FE00030463946FBF71CFA06460F4632463B462A
:104FF00007990C98FBF770F900252A46284B28469C
:105000000B91FBF71BFA01910890264A264B284684
:105010000B99FBF713FA0291009032463B46284663
:105020000B99FBF7FDF9079B0C9AFBF7FFF91F4A59
:105030001F4BFBF703FA029B009AFBF74DF907465B
:105040000B4637E07AB60B00860500006E050000BF
:10505000C40500001C050000E60400000000084034
:1050600009C7EE3FFD033ADCF5015B14E02F3EBEBD
:10507000BA0300007C0300005203000000009040CF
:10508000FE822B654715973C00CC904000346F3F63
:1050900001FCFFFF0000E03FC6020000FFFF0F0021
:1050A000432EE63F396CA80C615C20BEEF39FAFE56
:1050B000422EE63F0246079101990898FBF70CF94A
:1050C0000E460546019B089AFBF7AAF93A46079B4C
:1050D000FBF7ACF907912A4633460C901046194667
:1050E000FBF7ACF9074602462F480B460B9105210A
:1050F0007844FFF7D7FA3A460B9BFBF79FF92A460D
:105100003346FBF793F90746099128463146079B3A
:105110000C9AFBF793F9079B0C9AFBF7DDF8012338
:105120000191089000229B0738460999FBF778F90E
:1051300007910A903A4628463146099BFBF77EF9CB
:10514000079B0A9AFBF7E2F9019B089AFBF768F9BB
:105150002A463346FBF764F90022144BFBF766F945
:10516000054603980E46000581190915002911DC32
:1051700028463146039AFBF73FFCFFF77DFA0428E7
:1051800001D1FFF705FB28463146039AFBF734FCB3
:10519000054600E031180B462A4621460698FBF7E3
:1051A0004DF919B0F0BD0000640100000000F03FAF
:1051B000F8B506460C46FBF763FC051E0F4600D00B
:1051C0000120014349000B484908411AC90F0DD07D
:1051D000002E01D0012100E000210C4361004908AC
:1051E000401AC00F02D10120FFF7F2FA28463946D3
:1051F000F8BD00000000F07F000000000000F03F5C
:10520000000000000000F83F000000000000000067
:105210000000004003B8E23F000000000000000072
:1052200006D0CF43EBFD4C3E033333333333E33F00
:10523000FFAB6FDBB66DDB3F4D268F515555D53F2C
:1052400001411DA96074D13F65DBC9934A86CD3FFA
:10525000EF4E454A287ECA3F3E5555555555C53FE8
:1052600093BDBE166CC166BF2CDE25AF6A56113FDA
:10527000F16BD2C541BDBBBED0A4BE726937663EDC
:105280000000000000000000E2FFFFFFECFFFFFF56
:10529000F6FFFFFFFBFFFFFF050000000A00000014
:1052A000140000001E0000000105000000000003C3
:1052B00013000000000000000000000000000000DB
:1052C000000000000000030008000000401F000074
:1052D00020000100010000000000000000000000AC
:1052E000400000000000000000000000020000007C
:1052F00004000000010000002C00C44108001F0051
:105300000200000069180000010000000000000019
:10531000000000000800000018000000003000003D
:10532000080000001800000000300000000000002D
:105330000000000000000000000000003F400000EE
:10534000000000000000300040003000400000007D
:1053500009000BC03D000BC03D00090018C02440EF
:105360007FE0224031800000180024C01B000D8027
:105370003240018003801C4027401C8007400040D1
:1053800010006000000000000000000000000000AD
:1053900000001F80204040200000402020401F804F
:1053A00000000000090006001F8006000900000040
:1053B000040004003F8004000400000000100060AE
:1053C00000000000000000000400040004000400CD
:1053D0000400000000000040000000000000000089
:1053E000002001C006003800400000001F8020405F
:1053F000204020401F800000000010403FC00040BF
:105400000000000018C02140224024401840000045
:1054100010802040244024401B80000002000D002A
:1054200011003FC0014000003C8024402440244043
:10543000238000001F80244024403440038000006B
:105440003000200027C03800200000001B802440CE
:10545000244024401B8000001C0022C02240224027
:105460001F80000000000000084000000000000055
:1054700000000000046000000000000000000400C4
:105480000A001100208040400900090009000900BD
:105490000900000000004040208011000A000400C4
:1054A0001800200023402400180000001F80204026
:1054B000274029401F400000004007C039000F006E
:1054C00001C0004020403FC0244024401B80000019
:1054D0001F802040204020403080000020403FC0FE
:1054E000204020401F80000020403FC024402E402C
:1054F00030C0000020403FC024402E00300000009B
:105500000F001080204022403380020020403FC026
:10551000040004003FC02040204020403FC0204005
:10552000204000000060202020203FC020002000FC
:1055300020403FC024400B0030C0204020403FC0EE
:1055400020400040004000C03FC03C0003C03C0081
:105550003FC0000020403FC00C4023003FC020005F
:105560001F802040204020401F80000020403FC07E
:1055700024402400180000001F802140214020E02A
:105580001FA0000020403FC02440260019C000405A
:1055900018C02440244022403180000030002040C8
:1055A0003FC020403000000020003F80004000400D
:1055B0003F80200020003E0001C00700380020008E
:1055C000380007C03C0007C038000000204039C048
:1055D000060039C0204000002000384007C0384095
:1055E00020000000304021C02640384020C000008C
:1055F000000000007FE0402040200000000070001C
:105600000C000380004000000000402040207FE0AC
:10561000000000000000200040002000000000000A
:10562000001000100010001000100010000000001A
:10563000400000000000000000000280054005401E
:1056400003C0004020003FC004400440038000002D
:105650000000038004400440064000000000038076
:10566000044024403FC00040000003800540054046
:1056700003400000000004401FC0244024402000DC
:10568000000002E0055005500650042020403FC0B5
:105690000440040003C000400000044027C0004054
:1056A0000000000000100010041027E000000000BF
:1056B00020403FC00140070004C00440204020407B
:1056C0003FC000400040000007C0040007C00400C5
:1056D00003C00000044007C00440040003C00040B1
:1056E000000003800440044003800000041007F021
:1056F0000450044003800000000003800440045074
:1057000007F00010044007C002400400040000003D
:10571000000006400540054004C0000000000400F1
:105720001F80044000400000040007800040044047
:1057300007C000400400070004C001800600040008
:10574000060001C0070001C006000000044006C0BA
:10575000010006C0044000000410071004E00180AE
:10576000060004000000044005C00640044000009C
:105770000000000004007BE040200000000000006A
:105780000000FFF000000000000040207BE004006B
:105790000000000040008000400020002000400089
:1057A00000000000000000000000000000000000F9
:1057B0000000000000001FCC000C000000000000F2
:1057C00000000800300060000800300060000000A9
:1057D000022003FC1E20022003FC1E2002200000E9
:1057E00000000E1811043FFF10840C780000000028
:1057F0000F0010840F3800C007781884007800006C
:1058000000780F8410C411240E9800E4008400086E
:1058100008006800700000000000000000000000A8
:1058200000000000000007E01818200440020000FB
:10583000000040022004181807E0000000000000EB
:105840000240024001800FF001800240024000004F
:105850000080008000800FF8008000800080000041
:105860000001000D000E000000000000000000001C
:1058700000000080008000800080008000800080A8
:105880000000000C000C0000000000000000000000
:1058900000000006001800600180060018002000CB
:1058A000000007F0080810041004080807F00000C2
:1058B0000000080408041FFC0004000400000000AD
:1058C00000000E0C10141024104411840E0C000063
:1058D00000000C1810041104110412880C70000050
:1058E000000000E00320042408241FFC0024000022
:1058F00000001F981084110411041088107000001B
:10590000000007F0088811041104188800700000D6
:1059100000001C00100010FC13001C001000000010
:1059200000000E3811441084108411440E38000019
:1059300000000700088C10441044088807F000009D
:10594000000000000000030C030C00000000000039
:10595000000000000001010600000000000000003F
:10596000000000800140022004100808100400001C
:105970000220022002200220022002200220000039
:1059800000001004080804100220014000800000FC
:1059900000000E001200100C106C10800F000000B0
:1059A00003E00C1813E4142417C4082807D00000DF
:1059B0000004003C03C41C40074000E4001C000439
:1059C00010041FFC1104110411040E880070000063
:1059D00003E00C1810041004100410081C10000040
:1059E00010041FFC100410041004080807F0000045
:1059F00010041FFC1104110417C41004081800003F
:105A000010041FFC1104110017C010000800000052
:105A100003E00C181004100410441C78004000002F
:105A200010041FFC10840080008010841FFC1004F0
:105A30000000100410041FFC1004100400000000FB
:105A400000030001100110011FFE100010000000F3
:105A500010041FFC110403801464181C10040000BF
:105A600010041FFC1004000400040004000C0000DB
:105A700010041FFC1F0000FC1F001FFC100400008E
:105A800010041FFC0C04030000E010181FFC1000A1
:105A900007F00808100410041004080807F00000BC
:105AA00010041FFC10841080108010800F00000074
:105AB00007F0081810241024101C080A07F2000030
:105AC00010041FFC1104110011C011300E0C000451
:105AD00000000E1C11041084108410441C380000B7
